:020000040800F2
:10000000080C0020CD0100083D0900083509000852
:100010003909000875060008EF0E0008000000000E
:10002000000000000000000000000000910C00082B
:1000300019080008000000003F090008A50D00088D
:10004000E7010008E7010008E7010008E7010008F0
:10005000E7010008E7010008E7010008E7010008E0
:10006000E7010008E7010008E7010008E7010008D0
:10007000E7010008E7010008E7010008E7010008C0
:10008000E7010008E7010008E7010008E7010008B0
:10009000E7010008E7010008E7010008E7010008A0
:1000A000E7010008E7010008E7010008E701000890
:1000B000E7010008E7010008E7010008E701000880
:1000C000E7010008E7010008E7010008E701000870
:1000D000E7010008090E0008E7010008E701000831
:1000E000E7010008E7010008E7010008E701000850
:1000F000E7010008E7010008E7010008E701000840
:10010000E7010008E7010008E7010008E70100082F
:10011000E7010008E7010008E7010008E70100081F
:10012000E7010008E7010008E7010008E70100080F
:1001300000F002F800F03AF80AA090E8000C8244BF
:100140008344AAF10107DA4501D100F02FF8AFF29C
:10015000090EBAE80F0013F0010F18BFFB1A43F0A5
:10016000010318474C1200006C120000103A24BF23
:1001700078C878C1FAD8520724BF30C830C144BF0C
:1001800004680C607047000000230024002500264E
:10019000103A28BF78C1FBD8520728BF30C148BFEA
:1001A0000B6070471FB51FBD10B510BD00F0CEF835
:1001B0001146FFF7F7FF01F0A3F800F0ECF803B4E5
:1001C000FFF7F2FF03BC01F050F800000948804738
:1001D00009480047FEE7FEE7FEE7FEE7FEE7FEE729
:1001E000FEE7FEE7FEE7FEE704480549054A064B41
:1001F00070470000A90D0008310100080806002022
:10020000080C00200808002008080020704740EA79
:100210000103024630B59B0710D14FF0013400E0D6
:1002200008C208C91D1B9D4315EAC41FF8D013F06E
:10023000FF0102F8011B0DD01B0AF8E711F8013B82
:10024000002B02F8013B05D011F8013B002B02F80E
:10025000013BF3D130BD032A40F2308010F0030C93
:1002600000F0158011F8013BBCF1020F624498BF09
:1002700011F801CB00F8013B38BF11F8013BA2F1A6
:10028000040298BF00F801CB38BF00F8013B11F021
:10029000030300F02980083AC0F0088051F8043BBD
:1002A000083A51F804CBA0E80810F5E7121D5CBF2E
:1002B00051F8043B40F8043BAFF30080D20724BF61
:1002C00011F8013B11F801CB48BF11F8012B24BFF5
:1002D00000F8013B00F801CB48BF00F8012B704744
:1002E000704770477047704710B5203AC0F00B80D8
:1002F000B1E81850203AA0E81850B1E81850A0E82A
:100300001850BFF4F5AF5FEA027C24BFB1E8185083
:10031000A0E8185044BF18C918C0BDE810405FEAF3
:10032000827C24BF51F8043B40F8043B08BF70476F
:10033000D20728BF31F8023B48BF11F8012B28BF74
:1003400020F8023B48BF00F8012B7047754600F0CB
:100350002BF8AE4605006946534620F00700854657
:1003600018B020B5FFF740FFBDE820404FF0000671
:100370004FF000074FF000084FF0000B21F007018D
:10038000AC46ACE8C009ACE8C009ACE8C009ACE8D0
:10039000C0098D46704710B50446AFF30080204673
:1003A000BDE81040FFF70BBF00487047A4050020D0
:1003B00021B1826842F00102826003E0826822F08B
:1003C00001028260704721B1826842F480728260CB
:1003D00003E0826822F48072826070470146002048
:1003E0008A6802F004020AB1012000E00020704790
:1003F000014600208A6802F008020AB1012000E0EC
:100400000020704730B502460020002350680F4C92
:1004100020400D790C6844EA052420435060906820
:100420000B4C2040D1E902542C434D7944EA450459
:1004300020439060D06A20F470000C7C641EE4B20B
:10044000234340EA0350D06230BD0000FFFEF0FFBE
:10045000FDF7F1FFF0B504460D4600200021092DFF
:1004600011DDE068A5F10A0606EB4607072606FA45
:1004700007F18843A5F10A0606EB460603FA06F1E2
:100480000843E0600CE0206905EB4507072606FA03
:1004900007F1884305EB450603FA06F1084320619E
:1004A000072A0FDA606B561E06EB86071F2606FA30
:1004B00007F18843561E06EB860605FA06F1084347
:1004C000606322E00D2A0FDA206BD61F06EB860749
:1004D0001F2606FA07F18843D61F06EB860605FAA3
:1004E00006F10843206310E0E06AA2F10D0606EB76
:1004F00086071F2606FA07F18843A2F10D0606EBD0
:10050000860605FA06F10843E062F0BD816841F015
:1005100008018160704721B1826842F4A0028260C4
:1005200003E0826822F4A00282607047816841F093
:10053000040181607047000008B50121042000F02B
:100540001BFA7020ADF8000000208DF8030069460A
:10055000014800F062F908BD0008014010B5FFF73E
:10056000EBFF00F001F810BD00B591B00121084685
:1005700000F0F2F90121480200F0FEF93A4800F0DB
:1005800087F83A4806903A480790002008900320E0
:10059000099000200A9080200B9040000C90800071
:1005A0000D9020200E9000020F900020109006A9C0
:1005B0002D4800F013F901212B4800F05DF80020D0
:1005C000019001208DF808008DF809004FF460209B
:1005D00003900020049003208DF8140001A9234803
:1005E0004C38FFF70FFF4FF4404000F0A9F9052306
:1005F000012204211D484C38FFF72CFF052302225D
:1006000019461A484C38FFF725FF05230322062117
:1006100016484C38FFF71EFF012114484C38FFF7ED
:10062000D2FE012111484C38FFF7C2FE0F484C386A
:10063000FFF76CFF00BF0D484C38FFF7D9FE0028CC
:10064000F9D10A484C38FFF771FF00BF07484C3812
:10065000FFF7C4FE0028F9D1012104484C38FFF708
:100660005AFF11B000BD0000080002404C240140B8
:100670001E00002000BFFEE721B1026842F0010227
:10068000026004E002684FF6FE731A400260704791
:1006900001684FF6FE721140016000210160416067
:1006A0008160C1604B49884208D14A49083949688C
:1006B00041F00F01474A083A51608AE04549143138
:1006C000884208D143490839496841F0F001414A5C
:1006D000083A51607DE03F492831884208D13D49C0
:1006E0000839496841F470613A4A083A516070E04B
:1006F00038493C31884208D136490839496841F4C3
:100700007041344A083A516063E0324950318842BE
:1007100008D130490839496841F470212D4A083A16
:10072000516056E02B496431884208D12949083983
:10073000496841F47001274A083A516049E0254967
:100740007831884208D123490839496841F07061FD
:10075000204A083A51603CE01F49884206D1011FF7
:10076000096841F00F01021F116032E01A4914318B
:10077000884208D11849091F096841F0F001164A5A
:10078000121F116025E014492831884208D112490E
:10079000091F096841F470610F4A121F116018E0C7
:1007A0000D493C31884208D10B49091F096841F4C1
:1007B0007041094A121F11600BE00749503188420D
:1007C00007D10549091F096841F47021024A121F27
:1007D00011607047080002400804024010B5002272
:1007E000026847F6F0739A430C6A8B6823430C69DE
:1007F00023434C6923438C692343CC6923434C6ACC
:1008000023438C6A23431A430260CB6843600B681E
:1008100083604B68C36010BD70472DE9F04102460C
:1008200000250026002000230024002791F803C0A3
:100830000CF00F0591F803C00CF0100CBCF1000F88
:1008400003D091F802C04CEA050591F800C0BCF154
:10085000000F31D0146800202BE04FF0010C0CFA8F
:1008600000F3B1F800C00CEA03069E4220D18300D9
:100870004FF00F0C0CFA03F7BC4305FA03FC4CEAEB
:10088000040491F803C0BCF1280F06D14FF0010C0D
:100890000CFA00FCC2F814C00AE091F803C0BCF1E5
:1008A000480F05D14FF0010C0CFA00FCC2F810C043
:1008B000401C0828D1D31460B1F800C0BCF1FF0F70
:1008C00034DD546800202EE000F1080C4FF00108E0
:1008D00008FA0CF3B1F800C00CEA03069E4221D1DD
:1008E00083004FF00F0C0CFA03F7BC4305FA03FC2E
:1008F0004CEA040491F803C0BCF1280F05D100F1C3
:10090000080C08FA0CF8C2F8148091F803C0BCF186
:10091000480F07D100F1080C4FF0010808FA0CF855
:10092000C2F81080401C0828CED35460BDE8F08186
:100930000161704700BFFEE700BFFEE770477047E8
:1009400001460020034A506820F4404008435060AC
:10095000704700000010024029B1064A5269024364
:10096000044B5A6104E0034A52698243014B5A61C5
:10097000704700000010024029B1064A9269024304
:10098000044B9A6104E0034A92698243014B9A61E5
:1009900070470000001002402DE9F04104460D466A
:1009A00016460E4F00BF387808B900F0A3FA00BF12
:1009B000EFF311800746202080F3118800BF00BFAD
:1009C00032462946204600F00BF88046F8B280F304
:1009D000118800BF00BF4046BDE8F081EC00002058
:1009E0002DE9F047074688461646C24607EB470101
:1009F0001B4800EBC109D9F8140020B1012811D01F
:100A0000022826D11EE0484600F0ACFA0546B54261
:100A100001D2002405E0344632465146484600F0F3
:100A2000F8FB18E0484600F09DFA0546B54201D2B1
:100A3000284600E03046044622465146484600F02B
:100A4000E8FB08E032465146484600F0A7FB044662
:100A500001E0002400BF00BF2046BDE8F087000091
:100A6000040100200FB438B5044606A800906A4679
:100A70002046059900F007F805460020009028461A
:100A800038BC5DF814FB2DE9F04F99B082460D4655
:100A9000144603A814904020159000201690CDF81D
:100AA00060A0179000BF2E786D1C06B9DDE0252EE2
:100AB00079D100274FF0010900BF2E78232E12D0E4
:100AC0002B2E0CD02D2E02D0302E10D103E047F06B
:100AD00001076D1C0EE047F002076D1C0AE047F0AD
:100AE00004076D1C06E047F008076D1C02E04FF09C
:100AF000000900BF00BFB9F1000FDED14FF00008C0
:100B000000BF2E78302E01DB392E00DD07E06D1C92
:100B1000A6F1300008EB880100EB4108F1E700BFC7
:100B2000002013902E782E2E12D16D1C00BF2E782F
:100B3000302E01DB392E00DD09E06D1CA6F13000FE
:100B4000139901EB810100EB41001390EFE700BF27
:100B50002E7800BF6C2E01D0682E02D16D1C2E782D
:100B600000E000E0F6E700BF702E5DD008DC252E27
:100B70006AD0582E35D0632E09D0642E69D113E087
:100B8000732E3CD0752E1DD0782E62D128E02168BE
:100B9000081D2060D1F8009009F0FF0B594614A8F9
:100BA00000F0DAFA56E058E02168081D2060D1F81C
:100BB0000090CDE900870A22494614A8139B00F053
:100BC000DFF947E02168081D2060D1F80090CDE9E9
:100BD00000870A22494614A8139B00F047FA39E01F
:100BE00000BF2168081D2060D1F80090CDE9008782
:100BF0001022494614A8139B00F038FA2AE0216815
:100C0000081D2060D1F800B000BF9BF800600BF118
:100C1000010B06B906E0314614A800F09DFA1798BA
:100C20000028F2DA00BF15E02168081D2060D1F825
:100C30000090002008210B461022CDE90010494603
:100C400014A800F013FA05E0252114A800F084FA96
:100C500000E000BF00BF6D1C03E0314614A800F0A7
:100C60007BFA17980028BFF61EAF00BF1798002820
:100C70000ADD169820B103A95046169AFFF78CFE9C
:100C8000DDE9161008441790179819B0BDE8F08FE9
:100C9000704710B500F002F810BD00000CB5002040
:100CA000019000903348006840F48030314908607A
:100CB00000BF3048006800F4003000900198401CEC
:100CC0000190009818B90198B0F5A06FF1D12948AA
:100CD000006800F4003010B10120009001E0002015
:100CE00000900098012843D12348006840F010008C
:100CF000214908600846006820F0030008600846A3
:100D0000006840F0020008601A48406819494860CD
:100D10000846406848600846406840F48060486083
:100D20000846406820F47C1048600846406840F45B
:100D3000E81048600846006840F08070086000BF16
:100D40000C48006800F000700028F9D0094840689D
:100D500020F00300074948600846406840F0020060
:100D6000486000BF0348406800F00C000828F9D133
:100D70000CBD00000010024000200240042808D1F1
:100D80004FF0E021096941F004014FF0E0221161C8
:100D900007E04FF0E021096921F004014FF0E02263
:100DA000116170477047000010B51348006840F0AB
:100DB00001001149086008464068104908400E4982
:100DC0004860084600680E4908400B49086008461C
:100DD000006820F4802008600846406820F4FE0087
:100DE00048604FF41F008860FFF753FF4FF000602A
:100DF0000449086010BD0000001002400000FFF828
:100E0000FFFFF6FE08ED00E010B540F225511D4849
:100E100000F03EF810B31B4800F064F8C4B21A4862
:100E2000008800F40040C8B91748008800F48040EA
:100E300060B10A2C03D000201349088020E012483A
:100E4000008840F400401049088019E00D2C06D1BC
:100E50000D48008840F480400B49088010E00A48A3
:100E60000088C0F30D0009490C5407480088401C55
:100E70000549088008460088C72801DD0020088051
:100E800010BD0000003801401C000020240000209C
:100E900070B50246002400230025002040F66A16A3
:100EA000B14200D100BFC1F3421501F01F0301267A
:100EB00006FA03F3012D02D19689334006E0022D94
:100EC00002D1168A334001E0968A33400C12012683
:100ED00006FA04F41688344013B10CB1012000E086
:100EE000002070BD01468888C0F30800704700BF2D
:100EF000FEE7000010B5124C03202061606111A0D4
:100F0000A0611349E1614FF4806121620021A16277
:100F10006162E1620BA020660E4961661021A16644
:100F200000212167E16661670BA1E01DFFF76FF902
:100F30000AA12046FFF76BF92020A07110BD000028
:100F4000EC0000205465726D696E616C0000000059
:100F50009401002094050020525454005345474703
:100F60004552000010B501460A69CB689A4204D880
:100F70008C68641EE41AA01801E0D41A601E10BD2B
:100F80002DE9FC5F06460F4692469846DDE90C4582
:100F9000002F01DA784200E0384683464FF001091D
:100FA00003E09BFBFAFB09F10109D345F9DAC845D7
:100FB00000D9C14634B1002F03DB05F0040004283A
:100FC00000D1641E05F0020010B1B8F1000F11D07D
:100FD00005F0010070B96CB108E0641E20213046B4
:100FE00000F0BAF8F068002800DA02E00CB1A14580
:100FF000F3D300BFF068002836DB002F05DA7F420C
:101000002D21304600F0A8F807E005F00400042880
:1010100003D12B21304600F09FF8F068002823DB35
:1010200005F00200022814D105F0010088B9B8F1DA
:10103000000F0ED16CB108E0641E3021304600F084
:101040008BF8F068002800DA02E00CB1A145F3D378
:1010500000BFF068002807DB434652463946304659
:10106000CDE9004500F002F8BDE8FC9F2DE9FC5FEA
:101070008046894615461E460C9CCDF804900127F3
:10108000BB4605E00198B0FBF5F001900BF1010BB8
:101090000198A842F6D25E4500D9B3460D9800F0FB
:1010A0000100D0B9CCB10D9800F00200022803D1A4
:1010B00016B93020009001E02020009009E0641E65
:1010C0004046009900F048F8D8F80C00002800DAF3
:1010D00002E00CB1A345F2D300BFD8F80C00002801
:1010E00035DB09E0012E01D9761E04E0B9FBF7FAE1
:1010F000AA4500D201E06F43F4E700BF00BFB9FB8F
:10110000F7FA0AFB1799134810F80A10404600F046
:1011100023F8D8F80C00002800DA03E0B7FBF5F755
:10112000002FECD100BF0D9800F0010078B174B130
:1011300009E0641E2021404600F00EF8D8F80C00AB
:10114000002800DA02E00CB1A345F2D300BFBDE8ED
:10115000FC9F0000A013000870B504460E46A56869
:10116000681C6168814206D320684655681CA060EF
:10117000E068401CE060D4E9011088420DD1A2680B
:1011800021682069FFF708FCA168884203D04FF06E
:10119000FF30E06001E00020A06070BD2DE9F05F4D
:1011A0000446894617464FF0000AE56800BFD4F8A8
:1011B0001080A84503D9A8EB0500461E04E0A5EB66
:1011C0000800401CA1680E1AA068401BB04201D95B
:1011D000304601E0A068401B0646BE4201D23046C0
:1011E00000E038460646606800EB050B324649468B
:1011F0005846FFF730F8B244B144BF1B3544A068ED
:10120000A84200D10025E560002FD0D15046BDE8AE
:10121000F09F2DE9F047044689461546E668A06828
:10122000871BAF420AD9606800EB060A2A46494686
:101230005046FFF710F87019E06014E0B846606897
:1012400000EB060A424649465046FFF704F8A5EB74
:101250000708D4F804A009EB070142465046FEF700
:10126000FAFFC4F80C80BDE8F08700BF70470000AB
:1012700010B56FF00400FFF781FD0A4800680A49C5
:10128000B0FBF1F0094908700846007800EB400116
:10129000C1EBC0104FF6FF7101EAC000044908809D
:1012A00010BD00000000002000127A001400002091
:1012B000160000200146114A12884A434FF0E023ED
:1012C0005A6100229A611A46126942F001021A61BB
:1012D00000BF4FF0E022106900F001021AB100F4E3
:1012E0008032002AF5D04FF0E022126922F001028C
:1012F0004FF0E0231A6100229A6170471600002027
:1013000008B501214820FFF737FB2020ADF8000089
:1013100010208DF8030003208DF80200694617485D
:10132000FFF77BFA20211548FFF702FB2020ADF8DC
:10133000000069461248FFF770FA20211048FFF7B5
:10134000F7FAFFF795FFFFF709F915E00D48028856
:101350000DA10020FFF786FB0A4842880CA100205F
:10136000FFF780FB074882880BA10020FFF77AFB7C
:101370004FF47A70FFF79EFFE8E70000000C014091
:10138000001801401E000020313A25640D0A0000BB
:10139000323A25640D0A0000333A25640D0A000034
:1013A000303132333435363738394142434445469B
:1013B000D013000800000020240000006C01000889
:1013C000F413000824000020E40B0000880100084A
:1013D00000A24A0400000000000000000102030413
:1013E00006070809000000000000000000000000DF
:0413F00000000000F9
:04000005080001CD21
:00000001FF
